:020000040000FA
:040000008031202803
:100008007E1480312700130803190B280C281E289A
:10001800FA300032890B0D2820000C1D14281528F1
:100028001C283908F5003808F40082310222803192
:10003800270093017E100900803122288231F7229F
:100048008031FD008231F1228031BD008231F222FF
:100058008031BE008231F3228031BF00F901FA01FC
:10006800FB01FC012030840000308500183082310B
:10007800EB2280317E1020008231B32A19340034FB
:100088006734003467340034A03401340034003459
:10009800193400341934003467340034003400341F
:1000A8000C3400340C34003433340034003400345D
:1000B80000340034003400340C340034003400348C
:1000C80002340034023400340B3400340034003479
:1000D8000034003400340034003400340034003478
:1000E8000034003400340034003400340034003468
:1000F8000034003400340034003400343334003425
:10010800CF340034CF340034403403340C3400345A
:100118003334003433340034CF3400340034003402
:10012800193400341934003467340034003400348E
:1001380000340034003400341934003400340034FE
:1001480005340034053400341734003400340034E6
:1001580000340034003400340C34003400340034EB
:1001680000340034003400340034003400340034E7
:100178000034003400340034003400346734003470
:1001880000340034A0340134823406341934003485
:100198006734003467340034A03401340C3400343C
:1001A8003334003433340034CF3400340034003472
:1001B8000C3400340C34003433340034023400344A
:1001C8000B3400340B3400342F3400340034003442
:1001D800003400340034003419340034003400345E
:1001E8000034003400340034003400340034003467
:1001F800003400340034003400340034CF34003488
:10020800003400344034033404340D3433340034BF
:10021800CF340034CF34003440340334193400343C
:100228006734003467340034A034013400340034B7
:100238001934003419340034673400340534003478
:1002480017340034173400345F3400340034003479
:100258000C3400340C3400343334003400340034AB
:1002680000340034003400340034003400340034E6
:1002780000340034003400340034003400340034D6
:1002880000340034823406340A341A3467340034B3
:1002980000340034A034013482340634333400345A
:1002A800CF340034CF340034403403340C340034B9
:1002B8003334003433340034CF3400340B34003456
:1002C8002F3400342F340034BF3400340034003469
:1002D80019340034193400346734003400340034DD
:1002E8000034003400340034223400340034003444
:1002F8000034003400340034003400340034003456
:100308000034003404340D3414343434CF3400341D
:10031800003400344034033404340D34673400347A
:1003280000340034A03401348234063419340034E3
:100338006734003467340034A0340134173400348F
:100348005F3400345F3400347F3401340C340034BB
:100358003334003433340034CF34003400340034C0
:1003680000340034003400344434003400340034A1
:1003780000340034003400342234003400340034B3
:10038800003400340A341A342A346834003400340F
:1003980000340034823406340A341A34CF3400343A
:1003A800003400344034033404340D34333400341E
:1003B800CF340034CF340034403403342F34003485
:1003C800BF340034BF340034FF34023419340034ED
:1003D8006734003467340034A03401340034003406
:1003E80022340034223400348A3400340034003497
:1003F8000034003400340034443400347508F1000B
:100408007408F0008231992282317108F80070086E
:10041800F7007508803AF60080307602031D162A28
:1004280001307402031C192A1A2A1F2A01302000DD
:10043800B6000030B700F51F222A232A5E2A2000C2
:10044800B601B7015E2AFA300032890B282A20004B
:1004580036033704031D312A322A432A0130B407F0
:100468000030B53D3B083506031D3C2A3A083406E2
:10047800031D3F2A402A512AB401B501512A3408E4
:100488003504031D482A492A4D2A3B08B5003A0875
:10049800B400FF30B407FF30B53DFF30F707FF3039
:1004A800F83D03303405F00000303505F1008231A5
:1004B8006C2282317808803AF60080307602031D7B
:1004C800672A0130770203186A2A6B2A272A08004C
:1004D800852A22000E148E100E158E11982A2200DD
:1004E8000E108E140E158E11982A22000E108E14DE
:1004F8000E118E15982A22000E148E100E118E15CC
:10050800982A7108003A03198A2A982A7008003A2A
:1005180003196D2A013A0319732A033A0319792A30
:10052800013A03197F2A982A08007108803AF200D4
:1005380080307202031DA22A013070020318A52A16
:10054800A62AB22A7009F2007109F300F20A031907
:10055800F30A7208F0007308F100B22A08002000BC
:10056800BC01BC0A0030B8000830B9008231CB2287
:10057800823100302000C0000230C1008231DC220C
:1005880082318231CB228231C82A80312028210051
:100598001908873958389900FC30990599130C15B2
:1005A80023000C11270011158B158B170B1708004A
:1005B8002000B401B501B601B7014108BB004008ED
:1005C800BA0021000E108E100E118E110800640062
:1005D80080010131890BEC2A0034F4348234083468
:0805E8000D340A340034203404
:020000040001F9
:04000E00E43FFF1FAD
:00000001FF
