:020000040000FA
:0400000080310E2815
:100008007E14803184317F248031843143248031CF
:100018007E100900803110288531E6258031F800EE
:100028008531E7258031F900F501F601F701203027
:1000380084000030850024308531E02580317E1031
:1000480020008131EA2919340034673400346734D8
:100058000034A03401340034003419340034193425
:10006800003467340034003400340C3400340C3469
:1000780000343334003400340034003400340034A5
:1000880000340C34003400340034023400340234B8
:1000980000340B34003400340034003400340034AD
:1000A80000340034003400340034003400340034A8
:1000B8000034003400340034003400340034003498
:1000C80000340034003433340034CF340034CF34B7
:1000D8000034403403340C340034333400343334C3
:1000E8000034CF3400340034003419340034193467
:1000F80000346734003400340034003400340034F1
:100108000034193400340034003405340034053424
:100118000034173400340034003400340034003420
:1001280000340C340034003400340034003400341B
:100138000034003400340034003400340034003417
:100148000034003400346734003400340034A03400
:100158000134823406341934003467340034673487
:100168000034A03401340C340034333400343334D4
:100178000034CF340034003400340C3400340C34F0
:10018800003433340034023400340B3400340B347C
:1001980000342F3400340034003400340034003488
:1001A800003419340034003400340034003400348E
:1001B8000034003400340034003400340034003497
:1001C800003400340034CF34003400340034403478
:1001D800033404340D3433340034CF340034CF3492
:1001E800003440340334193400346734003467343D
:1001F8000034A03401340034003419340034193484
:1002080000346734003405340034173400341734AC
:1002180000345F340034003400340C3400340C34BF
:1002280000343334003400340034003400340034F3
:100238000034003400340034003400340034003416
:100248000034003400340034003400340034823484
:1002580006340A341A346734003400340034A034C5
:1002680001348234063433340034CF340034CF348C
:100278000034403403340C34003433340034333421
:100288000034CF3400340B3400342F3400342F348E
:100298000034BF34003400340034193400341934C5
:1002A800003467340034003400340034003400343F
:1002B8000034223400340034003400340034003474
:1002C8000034003400340034003400340034043482
:1002D8000D3414343434CF34003400340034403412
:1002E800033404340D346734003400340034A0344B
:1002F80001348234063419340034673400346734E6
:100308000034A0340134173400345F3400345F34CF
:1003180000347F3401340C34003433340034333443
:100328000034CF3400340034003400340034003456
:1003380000344434003400340034003400340034D1
:1003480000342234003400340034003400340A34D9
:100358001A342A34683400340034003400348234C7
:1003680006340A341A34CF340034003400344034AC
:10037800033404340D3433340034CF340034CF34F0
:100388000034403403342F340034BF340034BF34D5
:100398000034FF34023419340034673400346734CD
:1003A8000034A034013400340034223400342234C0
:1003B80000348A340034003400340034003400340B
:1003C8000034443400340D340A34003485319C251B
:1003D800813104302000C4000830C5008531B125C2
:1003E800813185319C2581318531C0258131843128
:1003F800BB2481312000D9005908DF005F080319A8
:10040800062A072A4D2A4208031D0B2A0C2A112AFC
:100418005F08D9005908C2004D2A4108031D152A52
:10042800162A1B2A5F08D9005908C1004D2A40081E
:10043800031D1F2A202A252A5F08D9005908C00051
:100448004D2A3F08031D292A2A2A2F2A5F08D90086
:100458005908BF004D2A3E08031D332A342A392A79
:100468005F08D9005908BE004D2A3D08031D3D2AE2
:100478003E2A432A5F08D9005908BD004D2A3C0886
:10048800031D472A482A4D2A5F08D9005908BC008D
:100498004D2A6C304206031D522A532AA82A61307D
:1004A8004106031D582A592AA82A6C303D06031D07
:1004B8005E2A5F2AA82A61303C06031D642A652A41
:1004C800A82A76303E06031D6A2A6B2A892A400824
:1004D800D900DA015908C4005A08C5003F08DB00F2
:1004E800DC015B08C6005C08C70085314125813105
:1004F80020004409DD004509DE00DD0A0319DE0A93
:100508005D08B4005E08B500A52A61303E06031DEB
:100518008E2A8F2AA52A4008D900DA015908C40072
:100528005A08C5003F08DB00DC015B08C6005C0810
:10053800C70085314125813120004508B5004408B0
:10054800B4008531C0258131733020004206031D77
:10055800AE2AAF2ADD2A73304106031DB42AB52A14
:10056800DD2A73304006031DBA2ABB2ADD2A733000
:100578003F06031DC02AC12ADD2A73303E06031D2B
:10058800C62AC72ADD2A73303D06031DCC2ACD2A88
:10059800DD2A73303C06031DD22AD32ADD2A35080A
:1005A800C9003408C8008331D22381318531C02580
:1005B800813120003C080319E22AE32AE62A853122
:1005C800C02581316C30200042060319EC2AED2A3F
:1005D800F92A733042060319F22AF32AF92A420843
:1005E8000319F72AF82AF92AF8296130410603196C
:1005F800FE2AFF2AFB29733041060319042B052B19
:10060800FB2941080319092B0A2BFB29F8298031FA
:100618000E282000D30023001E12083020005302A9
:10062800031C172B182B1A2B0030D12B0730440230
:10063800031C1F2B202B212B182BD401D5012000A4
:100648005508C6005408C500C535C60D5308C7006F
:10065800C801C735C80DC735C80DC735C80D44080A
:10066800C900CA010630C935CA0D890B372B273096
:10067800CB008030CC0049084B07CD004A084C3DE0
:10068800CE0047084D07CF0048084E3DD0004F0820
:10069800450784005008463D85001200D10012002D
:1006A800D1040319582B592BB02B5508C6005408F0
:1006B800C500C535C60D5308C700C801C735C80DE4
:1006C800C735C80DC735C80D4408C900CA0106306A
:1006D800C935CA0D890B6C2B2730CB008030CC0074
:1006E80049084B07CD004A084C3DCE0047084D0746
:1006F800CF0048084E3DD0004F08450784005008F9
:10070800463D8500003F23009B00013F9C009C2B39
:1007180023001E119F11C12B23001E159F11C12BF1
:1007280023001E119F15C12B23001E159F15C12BD9
:1007380020005508003A0319A22BC12B5408003A8F
:1007480003198C2B013A0319902B033A0319942BA4
:10075800013A0319982BC12B0130D4070030D53D3D
:100768005508803AC50080304502031DBD2B043072
:100778005402031CC02BC12B232B20005508803AA0
:10078800C50080304502031DCB2B04305402031CE6
:10079800CE2BCF2BD02B182B0130080022000E17A0
:1007A80020004908C5004808C400853180258331E8
:1007B80020004508CC004408CB004908803ACA000C
:1007C80080304A02031DEA2B01304802031CED2B3E
:1007D800EE2BF32B01302000BA000030BB002000C4
:1007E800C91FF72BF82B322CBA01BB01322CA630CB
:1007F800890BFC2B003220003A033B04031D052C17
:10080800062C172C0130B6070030B73D39083706DB
:10081800031D102C38083606031D132C142C252C08
:10082800B601B701252C36083704031D1C2C1D2CD6
:10083800212C3908B7003808B600FF30B607FF305A
:10084800B73DFF30CB07FF30CC3D03303605C40041
:1008580000303705C5008431F224833120004C086C
:10086800803ACA0080304A02031D3C2C01304B02FA
:1008780003183F2C402CFB2B22000E1308002000ED
:10088800111E472C482C7E2C2100111E4C2C4D2C5F
:100898007E2C76087506031D522C532C552C1112EC
:1008A8007E2C7508203E86008701010823009A00E7
:1008B8007508013EF000003003180130F10071089E
:1008C800803AF20080307202031D6C2C0A307002EC
:1008D80003186F2C702C782C7508013EF30000303B
:1008E80003180130F4007A2CF301F4017308F000C6
:1008F8007008F50008002000911E832C842CBA2C67
:100908002100911E882C892CBA2C23009D1C8D2C2B
:100918008E2C902C1D121D161908F00077082A3EFF
:1009280086008701700881007708013EF0000030DA
:1009380003180130F1007108803AF2008030720229
:10094800031DA82C0A3070020318AB2CAC2CB42C55
:100958007708013EF300003003180130F400B62C8C
:10096800F301F4017308F0007008F7000800770835
:1009780020004306031DC12CC22CC42C0030F12CCE
:1009880043082A3E860087010108C4004408C700BE
:100998004308013EC400003003180130C500450873
:1009A800803AC60080304602031DDC2C0A3044021F
:1009B8000318DF2CE02CE92C20004308013EC80076
:1009C800003003180130C900EC2C2000C801C9010F
:1009D8004808C4004408C300470808000B2D22003B
:1009E8000E148E100E158E111F2D22000E108E144F
:1009F8000E158E111F2D22000E108E140E118E153D
:100A08001F2D22000E148E100E118E151F2D200082
:100A18004508003A0319112D1F2D4408003A0319FF
:100A2800F32C013A0319F92C033A0319FF2C013A64
:100A38000319052D1F2D08000A302000C4000030BE
:100A4800C500302D44082A3E8600870181014408EC
:100A5800203E860087018101FF30C407FF30C53D75
:100A6800440A031D3B2D450A031D3B2D3C2D262D15
:100A7800F701C301F601F50108002000C801C9010A
:100A8800441C472D482D4C2D4608C8074708C93D2A
:100A98000130C635C70D890B4D2D0130C536C40C44
:100AA800890B522D44084504031D5B2D5C2D442DF4
:100AB8004908C5004808C40008002000D80085314E
:100AC800C925853120005608D7005708C4005808A2
:100AD80083310D238531003A031D732D742D762D36
:100AE80000307F2D8531D92585318531D125853156
:100AF80023009D170130080020004508803AC600F1
:100B080080304602031D8A2D0130440203188D2DC2
:100B18008E2D9B2D20004409C6004509C700C60A32
:100B28000319C70A4608C4004708C5009B2D0800DA
:100B380021001908873958389900FC30990599130C
:100B48000E1322000E138B170B172000D601D60A9E
:100B5800033085316125853108002000B601B701D1
:100B6800BA01BB014508B9004408B80021000E10BD
:100B78008E100E118E1108002000C201C101C001A3
:100B8800BF01BE01BD01BC01080023009D131D1259
:100B98009E12853120258531080023001D138D12F2
:100BA8002100911623001D16080023001E132100A2
:100BB800111623009E160800640080010131890B7C
:080BC800E12D0034E734813413
:020000040001F9
:04000E00E43FFF1FAD
:00000001FF
